:100000000C94EC010C9414020C9414020C94140241
:100010000C9414020C9414020C9414020C94140208
:100020000C9414020C9414020C94D50B0C94A10A99
:100030000C9414020C9414020C9414020C941402E8
:100040000C9414020C9414020C9414020C941402D8
:100050000C9414020C9414020C9414020C940404D6
:100060000C9414020C94BB060C94ED060C94140230
:100070000C9414020C9414020C9414020C941402A8
:100080000C9414020C9414020C9414020C94140298
:100090000C9414020C9414020C9414020C94140288
:1000A0000C9414020C9414020C94140208050B0511
:1000B000FA04FE0404052C052C052C050F05130578
:1000C00017051D0521052C05270500000002000964
:1000D0000F0000030401000C0000000000000000FD
:1000E00000000000000000000408020110408040F1
:1000F000102040804080080204018040201002014E
:10010000108010204040040404040403040502028B
:1001100002020403020202020606060606060404A0
:1001200002020204000000002300260029002C0027
:100130002F0000000000250028002B002E003100B9
:1001400000000000240027002A002D003000080BCA
:100150000002020201000904000001020200000581
:1001600024001001052401010104240206052406CF
:1001700000010705810310004009040100020A0084
:10018000000007050202400000070583024000004E
:1001900000C18081C11201000202000040412336EB
:1001A0008000010102000112010002000000404134
:1001B00023368000010102000141726475696E6F8F
:1001C000204C4C430055534220494F20426F6172EE
:1001D00064000403090400000000000000002A2B52
:1001E00028000000000000000000000000000000E7
:1001F0000000000000002C9EB4A0A1A2A434A6A779
:10020000A5AE362D3738271E1F2021222324252670
:10021000B333B62EB7B89F8485868788898A8B8C3E
:100220008D8E8F909192939495969798999A9B9C86
:100230009D2F3130A3AD350405060708090A0B0CC4
:100240000D0E0F101112131415161718191A1B1C66
:100250001DAFB1B0B50009040200010300000009A0
:10026000210101000122650007058403400001050A
:10027000010902A1010901A100850105091901294E
:10028000031500250195037501810295017505810E
:100290000305010930093109381581257F75089555
:1002A000038106C0C005010906A1018502050719E1
:1002B000E029E71500250175019508810295017572
:1002C000088103950675081500256505071900299D
:1002D000658100C000407A10F35A00A0724E1809E0
:1002E0000010A5D4E80000E87648170000E40B549D
:1002F000020000CA9A3B000000E1F505000080966C
:100300009800000040420F000000A086010000009D
:10031000102700000000E803000000006400000057
:1003200000000A00000000000100000000002C7620
:10033000D888DC674F0823DFC1DFAE59E1B1B7963B
:10034000E5E3E453C63AE651997696E8E6C2842698
:10035000EB898C9B62ED407C6FFCEFBC9C9F40F274
:10036000BAA56FA5F490055A2AF75C936B6CF967F0
:100370006DC11BFCE0E40D47FEF520E6B500D0EDB5
:10038000902E0300943577050080841E080000201D
:100390004E0A000000C80C333333330F986E1283BB
:1003A0001141EF8D2114893BE65516CFFEE6DB188F
:1003B000D1844B381BF77C1D901DA4BBE424203254
:1003C00084725E228100C9F124ECA1E53D27AE02D2
:1003D00088061D07A70DAA0211241FBECFEFDAE081
:1003E000DEBFCDBF11E0A0E0B1E0E0EBF6E202C07D
:1003F00005900D92AA34B107D9F722E0AAE4B1E042
:1004000001C01D92A736B207E1F713E0C6EDD3E0B5
:1004100004C02297FE010E94A90FCE3CD107C9F764
:100420000E94A6060C944B130C940000DC01ED9185
:10043000FC910190F081E02D099426E040E05BE41E
:1004400060E070E080EB91E00E94430840E05BE4F4
:1004500060E070E080E691E00E94820665E08AE458
:1004600091E00E94E00340E050E86EE075E48AE429
:1004700091E00E94FE036AE08AE491E00C94EE03AE
:10048000CF92DF92EF92FF920F931F93CF93DF9360
:10049000CDB7DEB72A970FB6F894DEBF0FBECDBF3B
:1004A00061E08AE491E00E94E00390582091060107
:1004B0003091070140910801509109010E94030FFA
:1004C0006B017C0120E030E0A9010E94B40D87FFA0
:1004D00003C0C12CD12C76018E010F5F1F4F20E08D
:1004E00043E0C701B6010E94AD0F6981772767FD20
:1004F000709580EB91E00E9416026A81772767FD74
:10050000709580EB91E00E9416026B81772767FD62
:10051000709580EB91E00E9416026C81772767FD51
:10052000709580EB91E00E94160268EC70E080E02C
:1005300090E00E9471042A960FB6F894DEBF0FBEB9
:10054000CDBFDF91CF911F910F91FF90EF90DF9082
:10055000CF9008958AE491E00C94B50220E843E03E
:1005600062E08AE491E00C94770328E131E0FC0139
:1005700031832083089528E131E0FC013183208319
:100580000C94B906FC0183810E949C0521E0892B13
:1005900009F020E0822F08957F928F929F92AF9270
:1005A000BF92CF92DF92EF92FF920F931F93CF9360
:1005B000DF9300D01F92CDB7DEB78C01C8010E9437
:1005C000C2028823D9F333E0732EC12CD12C7601DB
:1005D000C3947A94EFEF7E1235C0E12CF12CF80130
:1005E000848190E0E816F90674F461E0F8018281F4
:1005F0000E94660560E0F80182810E946605FFEFB7
:10060000EF1AFF0AECCF6A81862F90E0A0E0B0E0FD
:100610006627782F892F9A2F2981622B2B812058CA
:10062000822B0F900F900F90DF91CF911F910F9120
:10063000FF90EF90DF90CF90BF90AF909F908F9002
:100640007F90089587E0A82EB12C88248394912C64
:100650008C0E9D1E870C911C61E0F80182810E9426
:100660006605F80183810E949C05892B79F0F401CD
:100670002081D701C6010A2C04C0880F991FAA1F28
:10068000BB1F0A94D2F7282B20830FC0D701C601C5
:100690000A2C04C0880F991FAA1FBB1F0A94D2F707
:1006A0008095F40190818923808360E0F801828144
:1006B0000E946605F1E0AF1AB10870F68ACFCF93B9
:1006C000DF93EC01603441F0603821F0603231F4A6
:1006D00082E003C081E001C083E08C8360E08A8116
:1006E0000E946605CE01DF91CF910C94CC020F934E
:1006F0001F93CF93DF931F92CDB7DEB78C01842F6A
:10070000E8E1F1E0D8011196FC93EE9312964C9338
:10071000129713966C9361E029830E942D0560E087
:10072000F80183810E942D052981622FC8010F9055
:10073000DF91CF911F910F910C945F03CF92DF92C5
:10074000EF92FF920F931F93CF93DF93EC01162F3D
:1007500000E0C12CD12C7601011749F0CE010E9496
:10076000CC02C60ED71EE81EF91E0F5FF5CF202F54
:1007700030E040E050E0C701B6010E94880FCA0196
:10078000B901DF91CF911F910F91FF90EF90DF9012
:10079000CF9008950F931F93CF93DF93EC010E94A6
:1007A0009E030D811E812F813885601B710B820B8A
:1007B000930B0E94530EDF91CF911F910F910895DB
:1007C000CF93DF93EC010E94CA0329853A854B85BC
:1007D0005C850E94B80DDF91CF910895CF93DF9390
:1007E000EC010E949E030E94530E0E94200E6D8316
:1007F0007E838F839887DF91CF910895FC01418795
:1008000052876387748708951F920F920FB60F92D5
:1008100011242F933F938F939F93AF93BF93809116
:10082000580190915901A0915A01B0915B0130910A
:10083000570123E0230F2D3720F40196A11DB11D90
:1008400005C026E8230F0296A11DB11D2093570174
:100850008093580190935901A0935A01B0935B0182
:1008600080915C0190915D01A0915E01B0915F016A
:100870000196A11DB11D80935C0190935D01A09331
:100880005E01B0935F01BF91AF919F918F913F91B6
:100890002F910F900FBE0F901F9018953FB7F894AF
:1008A00080915C0190915D01A0915E01B0915F012A
:1008B00026B5A89B05C02F3F19F00196A11DB11DBB
:1008C0003FBF6627782F892F9A2F620F711D811DD8
:1008D000911D42E0660F771F881F991F4A95D1F737
:1008E0000895CF92DF92EF92FF92CF93DF936B0147
:1008F0007C010E944E04EB01C114D104E104F10417
:1009000089F00E94EF040E944E046C1B7D0B683E30
:10091000734090F381E0C81AD108E108F108C8518A
:10092000DC4FEACFDF91CF91FF90EF90DF90CF9037
:100930000895789484B5826084BD84B5816084BD57
:1009400085B5826085BD85B5816085BDEEE6F0E048
:10095000808181608083E1E8F0E0108280818260A4
:100960008083808181608083E0E8F0E08081816025
:100970008083E1E9F0E08081826080838081816012
:100980008083E0E9F0E0808181608083E1ECF0E049
:1009900080818460808380818260808380818160A7
:1009A0008083E3ECF0E0808181608083E0ECF0E024
:1009B000808182608083E2ECF0E0808181608083CE
:1009C000EAE7F0E0808184608083808182608083B8
:1009D000808181608083808180688083089508950C
:1009E00090E0FC013197EF30F105B0F5EA5AFF4F86
:1009F0000C94A70F809180008F7703C080918000B6
:100A00008F7D80938000089580918000877FF9CF4B
:100A100084B58F7702C084B58F7D84BD08958091A1
:100A200090008F7707C0809190008F7D03C08091E8
:100A30009000877F8093900008958091C0008F7709
:100A400003C08091C0008F7D8093C0000895809185
:100A5000C200877F8093C2000895CF93DF9390E018
:100A6000FC01E851FF4F2491FC01EA5FFE4F8491A5
:100A7000882349F190E0880F991FFC01E05CFE4F4C
:100A8000A591B4918E5C9E4FFC01C591D4919FB706
:100A9000611108C0F8948C91209582238C938881F1
:100AA00082230AC0623051F4F8948C91322F309531
:100AB00083238C938881822B888304C0F8948C9143
:100AC000822B8C939FBFDF91CF9108950F931F933B
:100AD000CF93DF931F92CDB7DEB7282F30E0F90117
:100AE000E653FF4F8491F901E851FF4F1491F9014A
:100AF000EA5FFE4F04910023C9F0882321F0698347
:100B00000E94F0046981E02FF0E0EE0FFF1FEE5C21
:100B1000FE4FA591B4919FB7F8948C91611103C0D9
:100B20001095812301C0812B8C939FBF0F90DF9183
:100B3000CF911F910F910895CF93DF93282F30E02D
:100B4000F901E653FF4F8491F901E851FF4FD49129
:100B5000F901EA5FFE4FC491CC2391F081110E940C
:100B6000F004EC2FF0E0EE0FFF1FEC5DFE4FA591BF
:100B7000B4912C912D2381E090E021F480E002C01B
:100B800080E090E0DF91CF910895CF93DF931F92A3
:100B9000CDB7DEB76983DC01ED91FC910280F38172
:100BA000E02D41E050E0BE016F5F7F4F09950F904F
:100BB000DF91CF910895CF93DF93EC018C859D85D4
:100BC00097FF05C082E00E9476099D878C878C85FF
:100BD0009D85DF91CF91089583E00C94CB0BFC01B0
:100BE0008485958597FD06C082E00E941E0990E0ED
:100BF0000196089582E00E941E0990E00895FC018C
:100C00008485958597FD05C02FEF3FEF35872487B5
:100C1000089582E00C947609CF93DF93EC018091E4
:100C20001101882331F083E00E94A70918161906E4
:100C300034F081E090E09B838A8380E090E0DF9154
:100C4000CF910895FC0120812E5F208342E450E083
:100C50006EE471E080E80C94420AFC01818190818D
:100C6000913A59F4813209F03CC047E050E06AE023
:100C700071E080E00E94420A43C0913291F58032D7
:100C800039F467E070E08AE091E00E94730A06C0E0
:100C9000823209F035C082818093110180910A016E
:100CA00090910B01A0910C01B0910D01803B9440FB
:100CB000A105B105C1F48091110180FD14C087E741
:100CC00097E790930108809300082BE088E190E07B
:100CD0000FB6F894A895809360000FBE2093600033
:100CE0000FC080E0089588E10FB6F894809360000B
:100CF000109260000FBEA895109201081092000893
:100D000081E008952FEF3FEFFC0135872487089598
:100D1000109263011092620188EE93E0A0E0B0E0CF
:100D20008093640190936501A0936601B09367017D
:100D300080E291E090936101809360018FEF9FEFDB
:100D400090936D0180936C01089508950E94990419
:100D50000E94A5068DE492E00E942B0C0E941D02C9
:100D6000CDE8D7E00E9440022097E1F30E948D0772
:100D7000F9CF0C9466101F920F920FB60F921124A8
:100D80002F938F939F93EF93FF93E091C001F09186
:100D9000C1018081E091C601F091C70182FD12C0BE
:100DA00090818091C9018F5F8F732091CA01821752
:100DB00051F0E091C901F0E0E055FE4F958F80932E
:100DC000C90101C08081FF91EF919F918F912F9177
:100DD0000F900FBE0F901F9018951F920F920FB695
:100DE0000F9211242F933F934F935F936F937F93B1
:100DF0008F939F93AF93BF93EF93FF9380EB91E01B
:100E00000E949B07FF91EF91BF91AF919F918F91AE
:100E10007F916F915F914F913F912F910F900FBEF6
:100E20000F901F90189580EB91E00E94600721E0E1
:100E3000892B09F420E0822F08951092B3011092BB
:100E4000B20188EE93E0A0E0B0E08093B40190930B
:100E5000B501A093B601B093B70180E391E0909300
:100E6000B1018093B0018DEC90E09093BD0180932F
:100E7000BC018CEC90E09093BF018093BE0188ECA4
:100E800090E09093C1018093C00189EC90E0909331
:100E9000C3018093C2018AEC90E09093C5018093D6
:100EA000C4018EEC90E09093C7018093C60110922C
:100EB000C9011092CA011092CB011092CC01089581
:100EC000FC01818D228D90E0805C9F4F821B9109F7
:100ED0008F7399270895FC01918D828D981731F0B9
:100EE000828DE80FF11D858D90E008958FEF9FEFC3
:100EF0000895FC01918D828D981761F0828DDF013C
:100F0000A80FB11D5D968C91928D9F5F9F73928FFC
:100F100090E008958FEF9FEF089583E197E0892B8C
:100F200049F080E090E0892B29F00E94130781119D
:100F30000C9400000895FC01848DDF01A80FB11D01
:100F4000A35ABF4F2C91848D90E001968F739927FF
:100F5000848FA689B7892C93A089B1898C918064EC
:100F60008C93938D848D981306C00288F389E02DAD
:100F700080818F7D80830895CF93DF93EC01888DEE
:100F80008823C9F0EA89FB89808185FD05C0A8898D
:100F9000B9898C9186FD0FC00FB607FCF5CF808113
:100FA00085FFF2CFA889B9898C9185FFEDCFCE015D
:100FB0000E949B07E7CFDF91CF910895CF92DF92F8
:100FC000FF920F931F93CF93DF931F92CDB7DEB79E
:100FD0006C01DC015B969C915B975C968C915C97B5
:100FE000981307C05096ED91FC915197808185FD33
:100FF00032C0F601038D10E00F5F1F4F0F731127F2
:10100000F02EF601848DF81211C00FB607FCF9CF4F
:10101000D6015096ED91FC915197808185FFF1CFDB
:10102000C60169830E949B076981EBCF838DE80F1E
:10103000F11DE35AFF4F6083D6015B960C935B97DB
:101040005296ED91FC91539780818062808381E07C
:1010500058968C930DC0D6015696ED91FC915797FA
:1010600060835096ED91FC915197808180648083DC
:1010700081E090E00F90DF91CF911F910F91FF9051
:10108000DF90CF900895BF92CF92DF92EF92FF92C0
:10109000CF93DF93EC016A017B01B22EE889F989D5
:1010A00082E08083411581EE580761057105A1F04A
:1010B00060E079E08DE390E0A70196010E94660F61
:1010C0002150310941095109569547953795279582
:1010D000211580E1380798F0E889F989108260E8E5
:1010E00074E88EE190E0A70196010E94660F2150FE
:1010F0003109410951095695479537952795EC8552
:10110000FD853083EE85FF852083188EEC89FD896F
:10111000B082EA89FB89808180618083EA89FB89CA
:10112000808188608083EA89FB89808180688083F0
:10113000EA89FB8980818F7D8083DF91CF91FF9049
:10114000EF90DF90CF90BF90089540915102509161
:10115000520220914F023091500242175307B4F4CB
:101160009091E8009570E1F39091E80092FD19C02C
:101170008093F100809151029091520201968F73F9
:101180009927892B19F48EEF8093E8008091510202
:10119000909152020196909352028093510281E005
:1011A000089580E00895CF92DF92FF920F931F93EE
:1011B000CF93DF931F92CDB7DEB7082F162F862F60
:1011C000880F8E5F99830E94A50883E00E94A5087E
:1011D000F02EC02E9981D92E8C2D8F19811778F47D
:1011E000F60184910E94A508082F80E00E94A508BE
:1011F0008023FFEFCF1ADF0A8111EECF01C081E01B
:101200000F90DF91CF911F910F91FF90DF90CF90C2
:101210000895615030F02091F100FC012083019687
:10122000F8CF289884E68093540208952FB7FC01E4
:101230002083F89467706093E9000895CF93DF935B
:101240001F92CDB7DEB7682FCE0101960E94160916
:101250008091F20099819FBF0F90DF91CF91089507
:10126000FF920F931F93CF93DF9300D0CDB7DEB7DC
:10127000F62E8A0190915302992311F057FF03C073
:101280008FEF9FEF2BC0682FCE0101967A830E94CB
:1012900016098091F20090E0A8017A8180179107E9
:1012A0000CF4AC01EF2DF72FF40E84E6FE1639F0A6
:1012B0002898809354029091F1009193F7CF4115B3
:1012C000510521F08091F200882321F089818FBFA0
:1012D000CA0104C08BE68093E800F8CF0F900F900E
:1012E000DF91CF911F910F91FF900895CF93DF93DE
:1012F0001F92CDB7DEB741E050E0BE016F5F7F4F78
:101300000E943009019719F4898190E002C08FEFA3
:101310009FEF0F90DF91CF910895CF93DF931F92AE
:10132000CDB7DEB7682FCE0101960E9416099091C5
:10133000E800892F807295FF04C09091F20080E44C
:10134000891B99819FBF0F90DF91CF9108956F9274
:101350007F928F929F92AF92BF92CF92DF92EF9245
:10136000FF920F931F93CF93DF931F92CDB7DEB7FA
:10137000782E7B01C42EB52E80915302882369F00C
:10138000042F152F8AEFD82E872D8072982E9AE37E
:10139000A92E872D8074882E11C08FEF9FEF57C024
:1013A000872D0E948D09682E81110CC0DA94A9F353
:1013B00061E070E080E090E00E9471040115110589
:1013C00079F73BC0282F30E0021713070CF4602E8A
:1013D000672DCE0101960E9416098091E80085FFD5
:1013E00029C0262D30E0021B130B992039F06A9496
:1013F0008FEF6816B1F01092F100F9CFF701862D4A
:1014000077FE07C0815058F094919093F100319687
:10141000F9CF815020F091919093F100FACFE20E34
:10142000F31E8091E80085FF0FC00115110511F42E
:1014300081100AC089818FBFC1CF5D9884E68093F7
:1014400055028C2D9B2D03C0A092E800F3CF0F9086
:10145000DF91CF911F910F91FF90EF90DF90CF9090
:10146000BF90AF909F908F907F906F900895109253
:10147000E900109252021092510290935002809310
:101480004F020895CF92DF92FF920F931F93CF9355
:10149000DF9300D0CDB7DEB7F82E8A016B010115BE
:1014A0001105B1F0F601F7FE02C0849101C0808100
:1014B00049835A830E94A50801501109FFEFCF1AF2
:1014C000DF0A49815A818111EACF8FEF9FEF01C076
:1014D000CA010F900F90DF91CF911F910F91FF9054
:1014E000DF90CF9008951F93CF93DF931F92CDB7D6
:1014F000DEB7162F2091E80022FFFCCF612F798301
:101500000E9409098BEF8093E800812F7981972F42
:101510000F90DF91CF911F910895CF93DF931F928A
:10152000CDB7DEB71982CE0101960E942206CE0108
:1015300001960E948F0C898190E00F90DF91CF91EE
:1015400008951F920F920FB60F921124EF92FF92FF
:101550000F931F932F933F934F935F936F937F93BB
:101560008F939F93AF93BF93EF93FF93CF93DF93AB
:10157000CDB7DEB76297DEBFCDBF1092E900809194
:10158000E80083FFEBC068E0CE010A960E940909DB
:1015900082EF8093E8009A8597FF05C08091E8006C
:1015A00080FFFCCF03C08EEF8093E800892F807608
:1015B00009F0B9C08B85811105C01092F10010921D
:1015C000F100C5C0282F2D7F213009F4C0C085301F
:1015D00049F48091E80080FFFCCF8C85806880937F
:1015E000E300B5C0863009F076C02D85E888F9881B
:1015F000223071F580E090E02A8B0E94370A0E9429
:101600008D0A99E08E010F5F1F4FF801392F11925B
:101610003A95E9F799832A892A8391E09E8390E895
:1016200098879AEF99872091510230915202275F53
:101630003F4F3C832B838D83C7010E94370A49E0CB
:1016400050E0B80180E00E94420A0E948D0A7FC0EB
:10165000C7012A8B0E94370A2A89223241F482E28A
:1016600090E00E949A0C892B09F071C074C021305F
:1016700069F488899989089711F420934E02809122
:101680004E02811118C067EA71E01AC0233009F0D8
:1016900062C08C85882391F0823021F46CE085EC67
:1016A00091E006C0813009F056C06BE089EB91E013
:1016B0000E94D3084AC065E971E002C062ED71E0A2
:1016C0006115710509F447C0FB01449150E080E8C1
:1016D0000E94420A3CC0873009F43DC0883021F4A2
:1016E00081E08093F10033C0893089F5937099F5DA
:1016F000E1E9F1E081E021E096E38093E9002093C5
:10170000EB0034913093EC009093ED008F5F3196B5
:10171000853099F78EE78093EA001092EA008C8575
:101720008093530214C0888999890E94370A8E8554
:10173000811105C0CE010A960E942D0606C0823096
:1017400051F4CE010A960E94C20C882321F08EEF3C
:101750008093E80003C081E28093EB0062960FB6AD
:10176000F894DEBF0FBECDBFDF91CF91FF91EF9117
:10177000BF91AF919F918F917F916F915F914F91A9
:101780003F912F911F910F91FF90EF900F900FBEFF
:101790000F901F9018958093E9008091F2008823A4
:1017A00019F08AE38093E80008951F920F920FB614
:1017B0000F9211242F933F934F935F936F937F93D7
:1017C0008F939F93AF93BF93EF93FF938091E1002B
:1017D0001092E10083FF0FC01092E90091E0909316
:1017E000EB001092EC0092E39093ED001092530204
:1017F00098E09093F00082FF1DC083E00E94CB0B25
:1018000080915502882339F0809155028150809350
:101810005502882369F080915402882359F0809101
:101820005402815080935402811104C0289A02C04E
:101830005D9AF1CFFF91EF91BF91AF919F918F9101
:101840007F916F915F914F913F912F910F900FBEBC
:101850000F901F9018951092530281E08093D7004B
:1018600080EA8093D80082E189BD09B400FEFDCFF3
:1018700061E070E080E090E00E94710480E9809374
:10188000D8008CE08093E2001092E000559A209AF4
:101890000895CF92DF92EF92FF920F931F93CF9311
:1018A000DF936C017A01EB01E60EF71E00E010E019
:1018B000CE15DF0561F06991D601ED91FC910190A3
:1018C000F081E02DC6010995080F191FF1CFC8015D
:1018D000DF91CF911F910F91FF90EF90DF90CF900C
:1018E0000895FF920F931F93CF93DF93EC01F62E91
:1018F000E881F9810480F581E02D09958C01E8816A
:10190000F9810680F781E02D6F2DCE010995C80180
:101910009927DF91CF911F910F91FF900895FC01BE
:1019200020812F5F208349E150E066E572E080E886
:101930000C94420A45E650E06FE672E080E80C94B1
:10194000420AEF92FF920F931F93CF93DF931F9260
:10195000CDB7DEB789838B017A0141E050E0BE014B
:101960006F5F7F4F84E00E94A709A701B80184E45C
:101970000E94A7090F90DF91CF911F910F91FF90C7
:10198000EF900895FC0191818081813A31F481E0EA
:10199000913091F0933089F411C0813271F49B3011
:1019A00021F482818093130105C09A3031F4828141
:1019B0008093120181E00895089580E0089548E041
:1019C00050E082E00C94A10CCF93DF93DC016838E7
:1019D00018F0E8E7E60F25C0E62FF0E067FF11C03A
:1019E000E058F10981E090E001C0880FEA95EAF73C
:1019F00014969C911497982B14969C931497E0E05E
:101A000010C0EA52FE4FE491EE2309F440C0E7FF14
:101A100008C014968C911497826014968C93149736
:101A2000EF7716968C9116978E1741F117968C9139
:101A300017978E1719F118968C9118978E17F1F049
:101A400019968C9119978E17C9F01A968C911A973E
:101A50008E17A1F01B968C911B978E1779F080E062
:101A600090E0ED01C80FD91F2E81211102C0EE8335
:101A700005C0019686309105A1F709C0BD016C5FD4
:101A80007F4FCD010E94DF0C81E090E008C081E033
:101A900090E013969C938E93129780E090E0DF91F4
:101AA000CF910895683818F0E8E7E60F25C0E62FD3
:101AB000F0E067FF12C0E058F10921E030E001C01A
:101AC000220FEA95EAF72095DC0114963C911497D1
:101AD000322314963C93E0E00FC0EA52FE4FE491AB
:101AE000EE2329F1E7FF08C0DC0114962C9114972E
:101AF0002D7F14962C93EF7720E030E0EE2351F009
:101B0000DC01A20FB31F16964C9116974E1302C01C
:101B100016961C922F5F3F4F2630310579F7BC0196
:101B20006C5F7F4F0E94DF0C81E090E0089580E0C1
:101B300090E00895FC0116821782108611861286A5
:101B400013861482BC016C5F7F4F0C94DF0C1092E3
:101B50006202109259021092580280E491E0909330
:101B60005702809356020895D9D008F481E0089571
:101B70000CD00FC107D140F0FED030F021F45F3F10
:101B800019F0F0C0511139C1F3C014D198F3992361
:101B9000C9F35523B1F3951B550BBB27AA27621731
:101BA0007307840738F09F5F5F4F220F331F441F76
:101BB000AA1FA9F333D00E2E3AF0E0E830D09150AE
:101BC0005040E695001CCAF729D0FE2F27D0660F9B
:101BD000771F881FBB1F261737074807AB07B0E8DA
:101BE00009F0BB0B802DBF01FF2793585F4F2AF0F0
:101BF0009E3F510568F0B6C000C15F3FECF3983ED0
:101C0000DCF3869577956795B795F7959F5FC9F74C
:101C1000880F911D9695879597F90895E1E0660FD5
:101C2000771F881FBB1F621773078407BA0720F04E
:101C3000621B730B840BBA0BEE1F88F7E0950895B7
:101C400004D06894B111D9C00895BCD088F09F57D2
:101C500090F0B92F9927B751A0F0D1F0660F771FF8
:101C6000881F991F1AF0BA95C9F712C0B13081F0D8
:101C7000C3D0B1E00895C0C0672F782F8827B85F20
:101C800039F0B93FCCF3869577956795B395D9F739
:101C90003EF490958095709561957F4F8F4F9F4F43
:101CA0000895E89409C097FB3EF49095809570954F
:101CB00061957F4F8F4F9F4F9923A9F0F92F96E998
:101CC000BB279395F695879577956795B795F1110D
:101CD000F8CFFAF4BB0F11F460FF1BC06F5F7F4FAA
:101CE0008F4F9F4F16C0882311F096E911C07723BC
:101CF00021F09EE8872F762F05C0662371F096E8C5
:101D0000862F70E060E02AF09A95660F771F881F93
:101D1000DAF7880F9695879597F90895990F000837
:101D2000550FAA0BE0E8FEEF16161706E807F907AD
:101D3000C0F012161306E407F50798F0621B730B48
:101D4000840B950B39F40A2661F0232B242B252BC9
:101D500021F408950A2609F4A140A6958FEF811D6C
:101D6000811D089597F99F6780E870E060E008950D
:101D70009FEF80EC089500240A94161617061806A3
:101D80000906089500240A9412161306140605067F
:101D90000895092E0394000C11F4882352F0BB0F10
:101DA00040F4BF2B11F460FF04C06F5F7F4F8F4F73
:101DB0009F4F089557FD9058440F551F59F05F3FAE
:101DC00071F04795880F97FB991F61F09F3F79F05D
:101DD00087950895121613061406551FF2CF4695DF
:101DE000F1DF08C0161617061806991FF1CF869561
:101DF0007105610508940895E894BB276627772745
:101E0000CB0197F908950BD0C4CFB5DF28F0BADF26
:101E100018F0952309F0A6CFABCF1124EECFCADF7F
:101E2000A0F3959FD1F3950F50E0551F629FF001ED
:101E3000729FBB27F00DB11D639FAA27F00DB11D46
:101E4000AA1F649F6627B00DA11D661F829F2227CF
:101E5000B00DA11D621F739FB00DA11D621F839F56
:101E6000A00D611D221F749F3327A00D611D231F2C
:101E7000849F600D211D822F762F6A2F11249F577A
:101E800050408AF0E1F088234AF0EE0FFF1FBB1F9D
:101E9000661F771F881F91505040A9F79E3F51053C
:101EA00070F060CFAACF5F3FECF3983EDCF38695ED
:101EB00077956795B795F795E7959F5FC1F7FE2BE7
:101EC000880F911D9695879597F90895A1E21A2E8E
:101ED000AA1BBB1BFD010DC0AA1FBB1FEE1FFF1FCE
:101EE000A217B307E407F50720F0A21BB30BE40B1E
:101EF000F50B661F771F881F991F1A9469F7609565
:101F00007095809590959B01AC01BD01CF0108951E
:101F1000052E97FB1EF400940E949F0F57FD07D0DB
:101F20000E94660F07FC03D04EF40C949F0F50954F
:101F30004095309521953F4F4F4F5F4F08959095B5
:101F40008095709561957F4F8F4F9F4F0895EE0F4D
:101F5000FF1F0590F491E02D0994EF920F931F93CA
:101F6000CF93DF93E80147FF02C034E101C034E0C2
:101F7000E42FFF27E7FDF095F7FF03C0F195E1950A
:101F8000F109E32E022F2E2FAE010E94F510CE0193
:101F9000DF91CF911F910F91EF900895CF93DF9331
:101FA0008230910510F482E090E0E0916502F091BA
:101FB000660220E030E0A0E0B0E0309739F14081E7
:101FC000518148175907B8F04817590771F48281B1
:101FD0009381109729F013969C938E9312972CC09F
:101FE000909366028093650227C02115310531F078
:101FF0004217530718F0A901DB0101C0EF019A0154
:10200000BD01DF010280F381E02DD7CF211531051D
:10201000F9F0281B390B2430310580F48A819B812B
:102020006115710521F0FB019383828304C09093B5
:10203000660280936502FE01329644C0FE01E20F03
:10204000F31F8193919322503109398328833AC039
:102050002091630230916402232B41F4209102010C
:1020600030910301309364022093630220910001B8
:10207000309101012115310541F42DB73EB7409152
:10208000040150910501241B350BE0916302F0918E
:102090006402E217F307A0F42E1B3F0B2817390741
:1020A00078F0AC014E5F5F4F2417350748F04E0FB4
:1020B0005F1F50936402409363028193919302C027
:1020C000E0E0F0E0CF01DF91CF910895CF93DF936F
:1020D000009709F487C0FC01329713821282C091E5
:1020E0006502D0916602209781F420813181280F0A
:1020F000391F80916302909164028217930779F5EA
:10210000F0936402E09363026DC0DE0120E030E0F2
:10211000AE17BF0750F412964D915C9113979D0135
:102120004115510509F1DA01F3CFB383A283408150
:102130005181840F951F8A179B0771F48D919C9193
:102140001197840F951F02969183808312968D912B
:102150009C911397938382832115310529F4F09381
:102160006602E09365023EC0D9011396FC93EE939C
:1021700012974D915D91A40FB51FEA17FB0779F4F3
:1021800080819181840F951F0296D90111969C93AD
:102190008E938281938113969C938E931297E0E0A5
:1021A000F0E08A819B81009719F0FE01EC01F9CFE4
:1021B000CE01029628813981820F931F20916302FC
:1021C000309164022817390769F4309729F4109286
:1021D00066021092650202C013821282D0936402DA
:1021E000C0936302DF91CF9108956F927F929F9287
:1021F000AF92BF92CF92DF92EF92FF920F931F9315
:10220000CF93DF93CDB7DEB729970FB6F894DEBF33
:102210000FBECDBF6A01B22E102F0C3320F4FF2465
:10222000F394F00E02C04CE3F42E0F2D27E0AE0124
:102230004F5F5F4F0E9473127981272F29702130E1
:1022400031F0E1FC06C0E0FC06C060E005C06DE2D4
:1022500003C06BE201C060E2AE2DA07173FF36C017
:10226000662311F084E001C083E08B1510F4B81AE6
:1022700001C0B12CA1110BC0F6018B2D90E2882377
:1022800019F091938150FBCFCB0CD11CB12C66235C
:1022900031F0F601608396012F5F3F4F6901C6015F
:1022A0000396E2FE05C02EE4F601208331E404C06B
:1022B0002EE6F601208331E631832283FC012B2DAB
:1022C00030E22223F1F131932150FBCF72FF40C065
:1022D000662311F084E001C083E08B1510F4B81A76
:1022E00001C0B12CA1110BC0F6018B2D90E2882307
:1022F00019F091938150FBCFCB0CD11CB12C6623EC
:1023000031F0F601608396012F5F3F4F6901C601EE
:102310000396E2FE07C029E4F60120832EE4218320
:1023200026E406C029E6F60120832EE6218326E670
:102330002283FC012B2D30E2222319F0319321500E
:10234000FBCFFC01EB0DF11D10828EEF9FEFB7C0AC
:10235000B1E0611101C0B0E04B2F50E01816190632
:1023600024F49C012F5F3F4F02C021E030E0240F96
:10237000351F112329F0412F50E04F5F5F4F02C0FE
:1023800040E050E0420F531F2B2D30E0421753071F
:1023900014F4B41A01C0B12C2E2D287159F4F60191
:1023A0002B2D30E2222319F031932150FBCFCB0C9F
:1023B000D11CB12CBB2331F0F601608396012F5F55
:1023C0003F4F6901A1110BC0F6012B2D30E32223F1
:1023D00019F031932150FBCFCB0CD11CB12CF80E4E
:1023E0000A81372F3071A32E74FF03C0013309F423
:1023F000FA941F142CF42F2D293018F028E001C076
:1024000021E0682F392F97FF02C060E030E0462FAF
:10241000532F612C712C3EE2932EBC01621B71097B
:102420009B01DC01A41BB50BE1E0F0E0EC0FFD1F0C
:10243000AE0FBF1FE12EF12CF194E194F1084F3F54
:10244000FFEF5F0731F4F6019082B6016F5F7F4FB7
:102450006B01841795074CF02417350734F4BD0140
:10246000660D771DFB01118101C010E34150510938
:10247000FFEF6F1A7F0AB6016F5F7F4F4E155F0542
:1024800024F0F60110836B01DACF4817590739F4AD
:10249000063320F4053319F4A11001C011E3F6014D
:1024A0001083FB018B2D90E2882319F091938150CA
:1024B000FBCFFB01EB0DF11D108280E090E029962F
:1024C0000FB6F894DEBF0FBECDBFDF91CF911F9145
:1024D0000F91FF90EF90DF90CF90BF90AF909F90C3
:1024E0007F906F900895283008F027E03327DA01B5
:1024F000990F311D87FD916000966105710539F4D2
:1025000032602E5F3D9330E32A95E1F708959F3FB7
:1025100030F080387105610509F03C5F3C5F3D9308
:10252000913008F08068911DDF93CF931F930F9334
:10253000FF92EF92192F987F9695E92F9695969591
:10254000E90FFF27E25DFC4F99273327EE24FF2494
:10255000A701E70105900894079428F4360FE71EB9
:10256000F81E491F511D660F771F881F991F06947B
:10257000A1F70590079428F4E70EF81E491F561F8F
:10258000C11D770F881F991F661F0694A1F705903C
:10259000079428F4F80E491F561FC71FD11D880F36
:1025A000991F661F771F0694A1F70590079420F4E2
:1025B000490F561FC71FD81F990F661F771F881F07
:1025C0000694A9F784911095177041F0D695C79598
:1025D00057954795F794E7941A95C1F7E4EDF2E023
:1025E00068941590159135916591959105907FE2CC
:1025F0007395E118F10A430B560BC90BD009C0F7CC
:10260000E10CF11E431F561FC91FD01D7EF470330D
:1026100011F48A95E6CFE894015030F0080F0AF4DF
:102620000027021708F4202F2395022F7A3328F071
:1026300079E37D932A95E9F710C07D932A9589F671
:10264000069497956795379517951794E118F10AB1
:10265000430B560BC90BD00998F023957E917395C7
:102660007A3308F070E37C932013B8F77E917061A1
:102670007D9330F0839571E37D9370E32A95E1F7C4
:102680001124EF90FF900F911F91CF91DF91992727
:1026900087FD9095089513E0C6EDD3E004C0FE01D8
:1026A0000E94A90F2296C83DD107C9F7F894FFCF21
:1026B0000000670280008FC2B54000E1000000000A
:1026C0000000010100000000B502BB020000000094
:1026D000C5050C06EF05FF05DB05EC050000000055
:1026E000DE07490C600779076B07BC070000000094
:0A26F000710C490CE40C520D9A0D18
:00000001FF
